:020000040000FA
:1000000000008A11A42B0034F200030E8301F100DA
:100010000A088A01F000040883160313A70083125C
:1000200003138B1006178316031327088400700828
:100030008A008301710E8300F20E720E0900831292
:100040000313C1007F08C000C201C3018312031360
:10005000861183120313C401103083120313440268
:1000600003185C28C11F38288312031306153B2888
:10007000831203130611031083120313C20DC30D61
:1000800083120313861C472883120313421483121E
:1000900003130616031083120313C00DC10D0130A4
:1000A000C50083120313C50B5128831203130612D4
:1000B00083120313C40A2C28831203138615831298
:1000C00003134208FF004308080083120313BC0017
:1000D0007F08BB0083120313861183120313BD0133
:1000E000BE0183120313BD0A0319BE0A2130BF00EB
:1000F00083120313BF0B78288312031386188A28F0
:10010000831203133C083E02031D88283B083D026E
:10011000031C7128831203133C083E02031D92281E
:100120003B083D020318962801309728003008004C
:100130000830FF0082308A111F208A1183120313B6
:10014000861508008312031386118030FF00CA3021
:100150008A111F208A118330FF00CA308A111F20A4
:100160008A11C830FF0082308A111F208A110800CE
:1001700083120313AF007F08AE007E08AD007D0838
:10018000B1007C08B000B201B301831203138611E1
:1001900083120313B401831203133408B500B601AC
:1001A0000030803EB7003108803E3702031DDA2858
:1001B00030083502031819290030FF00B0308A11C9
:1001C0001F208A1183120313B6007F08B500E830A0
:1001D000FF0003308A1165208A1183120313B700D0
:1001E0003708031DF5280030522983120313340801
:1001F0002D07B7002E080318013EB8002F0803187A
:10020000013EB9003508BA00FD003708FE00380885
:10021000FF0039088A1138248A1183120313B801A8
:100220003A08B700B20700300318380FB307B40A12
:10023000CB280030FF00B0308A111F208A118312B2
:100240000313B6007F08B500E830FF0003308A11C1
:1002500065208A1183120313AD002D08031D322976
:100260000030522983120313B3013508AD00B500E5
:10027000B60135083206031D412936083306031935
:1002800044298312031386178A1198208A1101309A
:1002900083120313AD0083120313AD0B4B298A1194
:1002A000A2208A11080083120313A2007F08A10074
:1002B0007E08A0007D08A4007C08A300A501A6017B
:1002C0003830FF0082308A111F208A11E830FF0089
:1002D00003308A1165208A1183120313A7002708AF
:1002E000031D74290030972AAA30FF00B8308A1104
:1002F0001F208A11E830FF0003308A1165208A111F
:1003000083120313A7002708031D88290030972AAA
:10031000AA30FF00B8308A111F208A11E830FF0090
:1003200003308A1165208A1183120313A70027085E
:10033000031D9C290030972AAA30FF00B8308A118B
:100340001F208A11E830FF0003308A1165208A11CE
:1003500083120313A7002708031DB0290030972A32
:100360002D30FF00B8308A111F208A11E830FF00BD
:1003700003308A1165208A1183120313A70027080E
:10038000031DC4290030972AD430FF00B8308A11E9
:100390001F208A11E830FF0003308A1165208A117E
:1003A00083120313A7002708031DD8290030972ABA
:1003B00083120313A701831203132708A800A901BE
:1003C0000030803EAB002408803E2B02031DEA294A
:1003D000230828020318312A831203132708200751
:1003E000A80021080318013EA90022080318013EB5
:1003F000AA002808FE002908FF002A088A114424C0
:100400008A1183120313AB00B830AC002B08FF0035
:100410002C088A111F208A11E830FF0003308A114E
:1004200065208A1183120313AB002B08031D1A2ABF
:100430000030972A831203132808FE002908FF00C2
:100440002A088A1144248A1183120313AB00A800DE
:10045000A9012808A50700300318290FA607A70A35
:10046000DB2983120313A601B830A6042508FF0078
:1004700026088A111F208A11E830FF0003308A11F4
:1004800065208A1183120313A0002008031D4A2A45
:100490000030972AAA30FF00B8308A111F208A1135
:1004A000E830FF0003308A1165208A11831203139C
:1004B000A0002008031D5E2A0030972AAA30FF0002
:1004C000B8308A111F208A11E830FF0003308A11EA
:1004D00065208A1183120313A0002008031D722ACD
:1004E0000030972AAA30FF00B8308A111F208A11E5
:1004F000E830FF0003308A1165208A11831203134C
:10050000A0002008031D862A0030972A0830FF002B
:1005100082308A111F208A118312031386166430D9
:100520008A11B3248A118312031386120130080042
:1005300083160313861186140611061206148312FD
:100540000313861506150612E730FF0080308A1166
:100550001F208A11D930FF0082308A111F208A1192
:100560007C30FF00A6308A111F208A114730FF001F
:10057000C6308A111F208A11A030FF0094308A11E2
:100580001F208A11AC30FF00C2308A111F208A114F
:100590008030FF00CA308A111F208A118330FF008B
:1005A000CA308A111F208A118330FF00C4308A119B
:1005B0001F208A115030FF0098308A111F208A11A5
:1005C0000030FF00E0308A111F208A110030FF0048
:1005D000C8308A111F208A110030FF00C0308A11F4
:1005E0001F208A110030FF0000308A111F208A115D
:1005F000080083120313D3007F08D2007E08D600C0
:100600007D08D5007C08D4007B08D8007A08D70084
:10061000D901DA01831203135A08803EDB0058081F
:10062000803E5B02031D162B570859020318482B06
:100630008312031359085407DB005508DC005A08DD
:1006400003185A0FDC0756080318013EDD00520854
:10065000DE005308D20A0319D30A5E088312031777
:100660008D00831603170C14831203170C08FD006A
:10067000831203135B08FE005C08FF005D088A110B
:1006800038248A1183120313D90A0319DA0A0A2BB0
:10069000080083120313C7007F08C6007E08CA0043
:1006A0007D08C9007C08C8007B08CC007A08CB0014
:1006B000CD01CE01831203134E08803ECF004C08BB
:1006C000803E4F02031D662B4B084D020318A32BDF
:1006D000831203134608CF004708D000C60A031947
:1006E000C70A4F08831203178D00831203134D08A6
:1006F0004807CF004908D0004E0803184E0FD00716
:100700004A080318013ED1004F08FE005008FF00C0
:1007100051088A1144248A11831203178C0083160E
:1007200003170C158D0155308D00AA308D008C14E7
:10073000831603178C18982B0C1183120313CD0A00
:100740000319CE0A5A2B0800C730FE000430FF0000
:1007500080308A11000057248A110000831203138D
:10076000E0007F08DF00C930E1000430E2008312BE
:1007700003135F08E3006008E400FF30DF07031C99
:10078000E003630864040319342C04306107E300B8
:10079000E401E40D6208E4076308FE006408FF005A
:1007A00080308A11000057248A110000831203133D
:1007B000E6007F08E5006108FE006208FF00803067
:1007C0008A11000057248A11000083120313E800E5
:1007D000E4007F08E700E30002306107E300E40182
:1007E000E40D6208E4076308FE006408FF0080303F
:1007F0008A11000057248A11000083120313E400B9
:10080000EA007F08E300E900831203136508E900AA
:100810006608EA00FF30E507031CE60369086A047E
:1008200003192D2C6708FE006808FF0080308A112C
:10083000000044248A11000083120313E9006308B6
:10084000840083136418831769088000E70A03197A
:10085000E80AE30A0319E40A042C0630831203139E
:10086000E1070318E20AB72B8A110000782C080070
:10087000003A03193C2C08007E08840083137F187B
:1008800083177D0880000800003A03194B2C803A3A
:100890000319522C00347E08840083137F188317B9
:1008A000000808007F088A007E0882000800003ADD
:1008B00003195F2C803A0319692CFF0100347E086C
:1008C000840083137F1883170008FF00840A000840
:1008D00008008A1100005224FD00FE0FFF03FF0AEA
:1008E0008A1100005224FC007D08FF007C080800EB
:1008F0006030831603138F0007309C00860183123B
:10090000031386018A1198228A11F4308A11B324C4
:100910008A11043083160313A100CF30A000803069
:10092000A2000530FC000030FD002008FE00210878
:10093000FF0022088A1153218A110A308A11B32438
:100940008A11892C080083120313EE0004308312ED
:100950000313EF00FA30B32483120313EF0BAA2C16
:10096000EE0BA62C080083120313EB000430831255
:100970000313EC00533083120313ED0083120313AF
:10098000ED0BBE2CEC0BBA2CEB0BB62C0800013493
:10099000003403340034A8340034013400344B34C0
:0A09A000613469346C3461340034B2
:02400E00103F61
:02401000FF3F70
:00000001FF
