:020000040000FA
:060000000000442B003457
:08000800F200030E8301F10078
:100010000A088A01F000040883120317CD00831236
:1000200003138B100617003083120317CC003930EE
:10003000CB000530FC000030FD004B08FE004C08F2
:10004000FF000030C020831203174D0884007008A1
:100050008A008301710E8300F20E720E0900831272
:100060000317C1007F08C000C201C301831203133C
:10007000861183120317C401103083120317440240
:1000800003186C28C11F48288312031306154B2838
:10009000831203130611031083120317C20DC30D3D
:1000A00083120313861C57288312031742148312EA
:1000B00003130616031083120317C00DC10D013080
:1000C000C50083120317C50B6128831203130612A0
:1000D00083120317C40A3C28831203138615831264
:1000E00003174208FF004308080083120317BC00EF
:1000F0007F08BB0083120313861183120317BD010F
:10010000BE0183120317BD0A0319BE0A2130BF00C6
:1001100083120317BF0B88288312031386189A28AB
:10012000831203173C083E02031D98283B083D023A
:10013000031C8128831203173C083E02031DA228DA
:100140003B083D020318A6280130A728003008000C
:100150000830FF0082302F20831203138615080019
:100160008312031386118030FF00CA302F208330A2
:10017000FF00CA302F20C830FF0082302F20080037
:1001800083120317AF007F08AE007E08AD007D0824
:10019000B1007C08B000B201B301831203138611D1
:1001A00083120317B401831203173408B500B60194
:1001B0000030803EB7003108803E3702031DE22840
:1001C0003008350203181B290030FF00B0302F2003
:1001D00083120317B6007F08B500E830FF00033034
:1001E000752083120317B7003708031DF928003064
:1001F0004C298312031734082D07B7002E08031863
:10020000013EB8002F080318013EB9003508BA00B6
:10021000FD003708FE003808FF003908D823831294
:100220000317B8013A08B700B20700300318380FB7
:10023000B307B40AD3280030FF00B0302F20831258
:100240000317B6007F08B500E830FF0003307520C3
:1002500083120317AD002D08031D302900304C29EF
:1002600083120317B3013508AD00B500B601350898
:100270003206031D3F29360833060319422983122B
:1002800003138617A820013083120317AD008312D1
:100290000317AD0B4729B020080083120317A200F3
:1002A0007F08A1007E08A0007D08A4007C08A300B0
:1002B000A501A6013830FF0082302F20E830FF0072
:1002C0000330752083120317A7002708031D6A292E
:1002D00000305D2AAA30FF00B8302F20E830FF0040
:1002E0000330752083120317A7002708031D7A29FE
:1002F00000305D2AAA30FF00B8302F20E830FF0020
:100300000330752083120317A7002708031D8A29CD
:1003100000305D2AAA30FF00B8302F20E830FF00FF
:100320000330752083120317A7002708031D9A299D
:1003300000305D2A2D30FF00B8302F20E830FF005C
:100340000330752083120317A7002708031DAA296D
:1003500000305D2AD430FF00B8302F20E830FF0095
:100360000330752083120317A7002708031DBA293D
:1003700000305D2A83120317A70183120317270891
:10038000A800A9010030803EAB002408803E2B026B
:10039000031DCC292308280203180B2A83120317F4
:1003A00027082007A80021080318013EA9002208F9
:1003B0000318013EAA002808FE002908FF002A08A9
:1003C000E42383120317AB00B830AC002B08FF0006
:1003D0002C082F20E830FF0003307520831203170C
:1003E000AB002B08031DF62900305D2A831203178A
:1003F0002808FE002908FF002A08E42383120317B7
:10040000AB00A800A9012808A50700300318290F90
:10041000A607A70ABD2983120317A601B830A604B0
:100420002508FF0026082F20E830FF000330752044
:1004300083120317A0002008031D202A00305D2A24
:10044000AA30FF00B8302F20E830FF0003307520BD
:1004500083120317A0002008031D302A00305D2AF4
:10046000AA30FF00B8302F20E830FF00033075209D
:1004700083120317A0002008031D402A00305D2AC4
:10048000AA30FF00B8302F20E830FF00033075207D
:1004900083120317A0002008031D502A00305D2A94
:1004A0000830FF0082302F20831203138616643039
:1004B00028248312031386120130080083160313C5
:1004C000861186140611061206148312031386156C
:1004D00006150612E730FF0080302F20D930FF00CC
:1004E00082302F207C30FF00A6302F204730FF00C5
:1004F000C6302F20A030FF0094302F20AC30FF00FA
:10050000C2302F208030FF00CA302F208330FF0000
:10051000CA302F208330FF00C4302F205030FF001E
:1005200098302F200030FF00E0302F200030FF00F7
:10053000C8302F200030FF00C0302F200030FF00D7
:1005400000302F20080083120313AD007F08AC0099
:100550007E08B0007D08AF007C08AE007B08B200CA
:100560007A08B100B301B401831203133408803E4A
:10057000B5003208803E3502031DC02A310833021F
:100580000318EC2A8312031333082E07B5002F0833
:10059000B60034080318340FB60730080318013EBC
:1005A000B7002C08B8002D08AC0A0319AD0A3808AA
:1005B000831603139B001C141A08FD0083120313F7
:1005C0003508FE003608FF003708D82383120313CE
:1005D000B30A0319B40AB42A080083120313A10052
:1005E0007F08A0007E08A4007D08A3007C08A2006C
:1005F0007B08A6007A08A500A701A80183120313AF
:100600002808803EA9002608803E2902031D0A2BE7
:10061000250827020318432B831203132008A9007F
:100620002108AA00A00A0319A10A290883160313A6
:100630009B008312031327082207A9002308AA009E
:1006400028080318280FAA0724080318013EAB0046
:100650002908FE002A08FF002B08E4238316031351
:100660009A001C159D0155309D00AA309D009C14D8
:10067000831603139C18382B1C1183120313A70A2B
:100680000319A80AFE2A08005930FE000430FF00B2
:10069000803000000000F7230000000083120313E5
:1006A000CD007F08CC005B30CE000430CF00831239
:1006B00003134C08D0004D08D100FF30CC07031CB9
:1006C000CD03500851040319D42B04304E07D00039
:1006D000D101D10D4F08D1075008FE005108FF008D
:1006E000803000000000F723000000008312031395
:1006F000D3007F08D2004E08FE004F08FF00803074
:1007000000000000F7230000000083120313D5004F
:10071000D1007F08D400D00002304E07D000D101B4
:10072000D10D4F08D1075008FE005108FF0080305E
:1007300000000000F7230000000083120313D10023
:10074000D7007F08D000D600831203135208D600CA
:100750005308D700FF30D207031CD30356085704B1
:100760000319CD2B5408FE005508FF00803000000F
:100770000000E4230000000083120313D600500899
:10078000840083135118831756088000D40A031974
:10079000D50AD00A0319D10AA42B063083120313F9
:1007A000CE070318CF0A572B000000003C2C08008E
:1007B000003A0319DC2B08007E08840083137F189D
:1007C00083177D0880000800003A0319EB2B803A5C
:1007D0000319F22B00347E08840083137F188317DB
:1007E000000808007F088A007E0882000800003A9E
:1007F0000319FF2B803A0319092CFF0100347E08EE
:10080000840083137F1883170008FF00840A000800
:10081000080000000000F223FD00FE0FFF03FF0AA6
:1008200000000000F223FC007D08FF007C080800A7
:1008300083120317C900043083120317CA00FA3069
:10084000282483120317CA0B1F2CC90B1B2C08006A
:1008500083120317C600043083120317C7005330F6
:1008600083120317C80083120317C80B332CC70B5E
:100870002F2CC60B2B2C08000730831203139F006C
:100880008316031386018312031386018B010B1653
:10089000831603130113831203138B175E22B020F8
:1008A000C830282401302824831203130613522C45
:1008B000080001340034023400344E340134013471
:0208C000003402
:02400E00503F21
:00000001FF
